:020000040800F2
:1000000008080020A9010008590300089702000809
:1000100055030008F10100083D0A00080000000037
:10002000000000000000000000000000D1080008EF
:10003000F501000800000000AD080008BD09000837
:10004000C3010008C3010008C3010008C301000880
:10005000C3010008C3010008C3010008C301000870
:10006000C3010008C3010008C3010008C301000860
:10007000C3010008C3010008C3010008C301000850
:10008000C3010008C3010008C3010008000000000C
:10009000000000000000000000000000C301000894
:1000A000C3010008C3010008C3010008C301000820
:1000B000C3010008C3010008C3010008C301000810
:1000C000C3010008C3010008C3010008C301000800
:1000D000C3010008C3010008C301000800000000BC
:1000E000C3010008C3010008C301000800000000AC
:1000F000000000000000000000000000C301000834
:1001000000000000C3010008C3010008C30100088B
:1001100000000000000000000000000000000000DF
:10012000C3010008C3010008C3010008C30100089F
:10013000C3010008000000000000000000000000F3
:10014000000000000000000000000000C3010008E3
:10015000C3010008C3010008C3010008C30100086F
:10016000C3010008C30100080000000000000000F7
:10017000000000000000000000000000000000007F
:1001800000000000C30100080000000000000000A3
:10019000C3010008DFF80CD000F018F80048004751
:1001A0005F0A000808080020064880470648004704
:1001B000FEE7FEE7FEE7FEE7FEE7FEE7FEE7FEE717
:1001C000FEE7FEE7D509000895010008064C074D3B
:1001D00006E0E06840F0010394E807009847103417
:1001E000AC42F6D3FFF7DAFFB80A0008D80A0008D5
:1001F00000BFFEE77047F0B50A4600210023002447
:1002000000BF3DE0012505FA01F3156805EA030486
:100210009C4234D105684F000326BE40B5430560BB
:1002200015794E00B5400668354305601579012DF6
:1002300002D01579022D16D185684F000326BE40E5
:10024000B543856055794E00B54086683543856075
:10025000456801268E40B5434560456896798E40D5
:10026000B6B235434560C5684F000326BE40B5436E
:10027000C560D5794E00B540C6683543C560491C98
:100280001029BFD3F0BD816170470AB1816101E0DF
:100290000B048361704700BFFEE7000010B5002229
:1002A00002210748FFF7F1FF012211460448FFF73A
:1002B000ECFF012202210248FFF7E7FF10BD00001A
:1002C0000000024070B50446254607261AE005F0F6
:1002D000800028B1012202211148FFF7D6FF04E077
:1002E000002202210E48FFF7D0FF012211460C48E0
:1002F000FFF7CBFF002201210948FFF7C6FF680680
:10030000050E761E002EE2DA012211460448FFF7A0
:10031000BCFF002201210248FFF7B7FF70BD0000BB
:100320000000024010B5012202210948FFF7ADFF8D
:10033000012211460648FFF7A8FF002202210448C7
:10034000FFF7A3FF002201210148FFF79EFF10BD28
:100350000000024000BFFEE770470146002901DDB2
:10036000084670474842FCE731B500F08BFA202080
:10037000FFF7A8FF0020FFF7A5FF2120FFF7A2FF4E
:100380000020FFF79FFF7F20FFF79CFF2220FFF751
:1003900099FF0020FFF796FF0720FFF793FFFFF775
:1003A0007DFF00F079FA00240BE0002506E00099BB
:1003B00001EBC411485DFFF785FF6D1C802DF6DB56
:1003C000641C082CF1DBFFF769FF38BD70B500F045
:1003D00059FA2020FFF776FF0020FFF773FF212056
:1003E000FFF770FF0020FFF76DFF7F20FFF76AFF28
:1003F0002220FFF767FF0020FFF764FF0720FFF7C9
:1004000061FFFFF74BFF00F047FA002408E00025EA
:1004100003E00020FFF756FF6D1C802DF9DB641C04
:10042000082CF4DBFFF73AFF70BD00000246002005
:1004300009E0002104E0054B03EBC0135A54491CAA
:100440008029F8DB401C0828F3DB704704000020FB
:1004500038B5044600940098FFF786FF38BD0000C9
:100460001CB50121084600F023FA01208DF8040094
:100470008DF806000320009002208DF80500012071
:100480008DF8070069460448FFF7B5FE03210248CE
:10049000FFF7F9FE1CBD00000000024010B500206F
:1004A00006E0002100E0491CB1F57A7FFBDB401C2F
:1004B000B0F57A7FF5DBFFF7D3FF00F0E3F9AE206C
:1004C000FFF700FFD520FFF7FDFE8020FFF7FAFEC3
:1004D000A820FFF7F7FE3F20FFF7F4FED320FFF739
:1004E000F1FE0020FFF7EEFE4020FFF7EBFEA1201B
:1004F000FFF7E8FEC820FFF7E5FEDA20FFF7E2FE8F
:100500001220FFF7DFFE8120FFF7DCFECF20FFF790
:10051000D9FED920FFF7D6FEF120FFF7D3FEDB206E
:10052000FFF7D0FE3020FFF7CDFEA420FFF7CAFE74
:10053000A620FFF7C7FE8D20FFF7C4FE1420FFF7AB
:10054000C1FE2E20FFF7BEFEAF20FFF7BBFEFFF778
:10055000A5FEFFF73BFF10BD02688A4200DB016089
:10056000704702688A4200DC016070471FB582B0A4
:10057000089C002102A8FFF7F4FF7E2102A8FFF7E4
:10058000EBFF002104A8FFF7ECFF7E2104A8FFF792
:10059000E3FF002103A8FFF7E4FF3F2103A8FFF7D3
:1005A000DBFF002105A8FFF7DCFF3F2105A8FFF7CF
:1005B000D3FF04990298884207D10599039888428D
:1005C00003D1FF20FFF732FF0EE004990298884222
:1005D00005D1009402A80FC800F0F8F804E00094D8
:1005E00002A80FC800F016F80248FFF731FF06B066
:1005F00010BD00000400002002468A4201DD1046C2
:1006000070470846FCE702468A4201DD084670470B
:100610001046FCE72DE9F84F8146884616461F46EE
:10062000DDF828A00023A7EB080001EE100AF8EE81
:10063000C11AA6EB090001EE100AB8EEC11A81EE4C
:10064000812AB0EE420A01EE107AF8EEC11A01EEEC
:10065000106AB8EEC11A40EE411AF0EE610A39464E
:100660004046FFF7D0FF0546C01705EB5070C41099
:1006700037E031464846FFF7C6FF05462AE000232B
:1006800000221BE05B1001EE105AF8EEC11AB0EE2A
:10069000601A00EE211A02EBC40101EE901AF8EE86
:1006A000E11A31EE611ABDEEC11A11EE100AFFF720
:1006B00054FE504501DA43F08003521C082AE1DB66
:1006C000414800EBC410405D18433F4901EBC411A1
:1006D00048556D1C31464846FFF78EFFA842CEDCD8
:1006E000641C39464046FFF787FF0546C01705EBF7
:1006F0005070B4EBE00FBCDB39464046FFF77CFF9F
:100700000446C01704EB5070C010A4EBC0000028D2
:1007100057D031464846FFF776FF04464BE00023AA
:10072000002532E05B1039464046FFF765FF8346FF
:10073000C0170BEB5070C01005EBC00001EE100AA3
:10074000F8EEC11A01EE104AB8EEC12AB0EE601AF6
:1007500000EE021A31EE611ABDEEC11A8DED001ADB
:100760000098FFF7FAFD50450EDA39464046FFF78C
:1007700043FF8346C0170BEB5070C010ABEBC000BB
:10078000A84201DB43F080036D1C082DCADB39460B
:100790004046FFF731FF0546C01705EB5070C0100B
:1007A000094901EBC01000EB040B9BF80000184353
:1007B0008BF80000641C31464846FFF71DFFA0423D
:1007C000ADDCBDE8F88F0000040000202DE9FF4FEC
:1007D00004469B46DDF834A0029884424ED1A4EB37
:1007E0000A00471C04EB0A08002F00DC0027B8F1C0
:1007F0007F0F01DB4FF07F083D463DE059460198F1
:10080000FFF701FF0646C01706EB5070C31025E046
:100810004FF00009002614E04FEA69095946019893
:10082000FFF7F1FE06EBC301884209DC5946019847
:10083000FFF7E2FE06EBC301884201DB49F08009C5
:10084000761C082EE8DB0E4800EBC310405D40EA42
:1008500009000B4901EBC31148555B1C594601982F
:10086000FFF7CAFE0646C01706EB5070012101EBE8
:10087000E0009842CCDC6D1C4545BFDBBDE8FF8F36
:100880000400002010B5FFF74DFD7820FFF71AFD9A
:100890000020FFF717FD10BD10B5FFF743FD7820CE
:1008A000FFF710FD4020FFF70DFD10BD7047000061
:1008B00029B1064A12680243044B1A6004E0034A55
:1008C00012688243014B1A607047000030380240C2
:1008D000704700000CB5002001900090334800687C
:1008E00040F480303149086000BF3048006800F4AF
:1008F000003000900198401C0190009818B90198B0
:10090000B0F5A04FF1D12948006800F4003010B1D3
:100910000120009001E0002000900098012844D1BF
:1009200022484030006840F0805020494031086043
:100930001F48006840F440401D4908601B480830CB
:1009400000681A49083108600846006808600846CF
:10095000006840F4805008601648091F0860081FAE
:10096000006840F08070091F086000BF0F480068F1
:1009700000F000700028F9D040F202700E490860C3
:100980000A480830006820F0030008490831086070
:100990000846006840F00200086000BF03480830C5
:1009A000006800F00C000828F8D10CBD00380240A7
:1009B0000070004019544107003C024004480068A0
:1009C00020B103480068401E0149086070470000DC
:1009D0000000002010B51548006840F4700013496D
:1009E00008601348006840F00100114908600020C9
:1009F0000F49083108600E4800680E4908400C494C
:100A000008600D48091D0860081F006820F4802058
:100A1000091F0860002006490C310860FFF75AFFE3
:100A20004FF0006001498039086010BD88ED00E09A
:100A300000380240FFFFF6FE1030002400BFFEE742
:100A400002E008C8121F08C1002AFAD17047704797
:100A5000002001E001C1121F002AFBD1704708B538
:100A6000FFF71CFD02203F235D221E2100900A207B
:100A7000FFF77CFD02201E237422194600900A20F5
:100A8000FFF774FD02201E2374223F2100902120D5
:100A9000FFF76CFD022000233F2211460090212029
:100AA000FFF764FD022000233F22114600905D20E5
:100AB000FFF75CFD00BFFEE7D80A00080000002039
:100AC00004000000400A0008DC0A000804000020BE
:0C0AD00004080000500A000800000000AC
:04000005080001A945
:00000001FF
